{
  "contractName": "alxToken",
  "abi": [
    {
      "inputs": [],
      "stateMutability": "nonpayable",
      "type": "constructor"
    },
    {
      "anonymous": false,
      "inputs": [
        {
          "indexed": true,
          "internalType": "address",
          "name": "_owner",
          "type": "address"
        },
        {
          "indexed": true,
          "internalType": "address",
          "name": "_spender",
          "type": "address"
        },
        {
          "indexed": false,
          "internalType": "uint256",
          "name": "_value",
          "type": "uint256"
        }
      ],
      "name": "Approval",
      "type": "event"
    },
    {
      "anonymous": false,
      "inputs": [
        {
          "indexed": true,
          "internalType": "address",
          "name": "previousOwner",
          "type": "address"
        },
        {
          "indexed": true,
          "internalType": "address",
          "name": "newOwner",
          "type": "address"
        }
      ],
      "name": "OwnershipTransferred",
      "type": "event"
    },
    {
      "anonymous": false,
      "inputs": [
        {
          "indexed": true,
          "internalType": "address",
          "name": "_from",
          "type": "address"
        },
        {
          "indexed": true,
          "internalType": "address",
          "name": "_to",
          "type": "address"
        },
        {
          "indexed": false,
          "internalType": "uint256",
          "name": "_amount",
          "type": "uint256"
        }
      ],
      "name": "Transfer",
      "type": "event"
    },
    {
      "inputs": [
        {
          "internalType": "address",
          "name": "",
          "type": "address"
        },
        {
          "internalType": "address",
          "name": "",
          "type": "address"
        }
      ],
      "name": "allowance",
      "outputs": [
        {
          "internalType": "uint256",
          "name": "",
          "type": "uint256"
        }
      ],
      "stateMutability": "view",
      "type": "function"
    },
    {
      "inputs": [
        {
          "internalType": "address",
          "name": "",
          "type": "address"
        }
      ],
      "name": "balanceOf",
      "outputs": [
        {
          "internalType": "uint256",
          "name": "",
          "type": "uint256"
        }
      ],
      "stateMutability": "view",
      "type": "function"
    },
    {
      "inputs": [],
      "name": "decimalFactor",
      "outputs": [
        {
          "internalType": "uint256",
          "name": "",
          "type": "uint256"
        }
      ],
      "stateMutability": "view",
      "type": "function"
    },
    {
      "inputs": [],
      "name": "decimals",
      "outputs": [
        {
          "internalType": "uint256",
          "name": "",
          "type": "uint256"
        }
      ],
      "stateMutability": "view",
      "type": "function"
    },
    {
      "inputs": [],
      "name": "owner",
      "outputs": [
        {
          "internalType": "address",
          "name": "",
          "type": "address"
        }
      ],
      "stateMutability": "view",
      "type": "function"
    },
    {
      "inputs": [],
      "name": "renounceOwnership",
      "outputs": [],
      "stateMutability": "nonpayable",
      "type": "function"
    },
    {
      "inputs": [],
      "name": "symbol",
      "outputs": [
        {
          "internalType": "string",
          "name": "",
          "type": "string"
        }
      ],
      "stateMutability": "view",
      "type": "function"
    },
    {
      "inputs": [],
      "name": "tokenName",
      "outputs": [
        {
          "internalType": "string",
          "name": "",
          "type": "string"
        }
      ],
      "stateMutability": "view",
      "type": "function"
    },
    {
      "inputs": [],
      "name": "totalSupply",
      "outputs": [
        {
          "internalType": "uint256",
          "name": "",
          "type": "uint256"
        }
      ],
      "stateMutability": "view",
      "type": "function"
    },
    {
      "inputs": [
        {
          "internalType": "address",
          "name": "newOwner",
          "type": "address"
        }
      ],
      "name": "transferOwnership",
      "outputs": [],
      "stateMutability": "nonpayable",
      "type": "function"
    },
    {
      "inputs": [
        {
          "internalType": "address",
          "name": "_to",
          "type": "address"
        },
        {
          "internalType": "uint256",
          "name": "_value",
          "type": "uint256"
        }
      ],
      "name": "transfer",
      "outputs": [
        {
          "internalType": "bool",
          "name": "success",
          "type": "bool"
        }
      ],
      "stateMutability": "nonpayable",
      "type": "function"
    },
    {
      "inputs": [
        {
          "internalType": "address",
          "name": "_spender",
          "type": "address"
        },
        {
          "internalType": "uint256",
          "name": "_value",
          "type": "uint256"
        }
      ],
      "name": "approve",
      "outputs": [
        {
          "internalType": "bool",
          "name": "success",
          "type": "bool"
        }
      ],
      "stateMutability": "nonpayable",
      "type": "function"
    },
    {
      "inputs": [
        {
          "internalType": "address",
          "name": "_from",
          "type": "address"
        },
        {
          "internalType": "address",
          "name": "_to",
          "type": "address"
        },
        {
          "internalType": "uint256",
          "name": "_value",
          "type": "uint256"
        }
      ],
      "name": "transferFrom",
      "outputs": [
        {
          "internalType": "bool",
          "name": "success",
          "type": "bool"
        }
      ],
      "stateMutability": "nonpayable",
      "type": "function"
    },
    {
      "inputs": [
        {
          "internalType": "uint256",
          "name": "_amount",
          "type": "uint256"
        }
      ],
      "name": "mintToken",
      "outputs": [
        {
          "internalType": "bool",
          "name": "success",
          "type": "bool"
        }
      ],
      "stateMutability": "nonpayable",
      "type": "function"
    }
  ],
  "bytecode": "0x60c0604052600960809081526820a62c102a27a5a2a760b91b60a0526001906200002a9082620001a4565b5060408051808201909152600881526720a62c1021a7a4a760c11b6020820152600290620000599082620001a4565b50601260038190556200006e90600a6200037b565b60048190556200008290620f42406200038f565b60055534801562000091575f80fd5b506200009d33620000b5565b600554335f90815260066020526040902055620003a9565b5f80546001600160a01b038381166001600160a01b0319831681178455604051919092169283917f8be0079c531659141344cd1fd0a4f28419497f9722a3daafe3b4186f6b6457e09190a35050565b634e487b7160e01b5f52604160045260245ffd5b600181811c908216806200012d57607f821691505b6020821081036200014c57634e487b7160e01b5f52602260045260245ffd5b50919050565b601f8211156200019f575f81815260208120601f850160051c810160208610156200017a5750805b601f850160051c820191505b818110156200019b5782815560010162000186565b5050505b505050565b81516001600160401b03811115620001c057620001c062000104565b620001d881620001d1845462000118565b8462000152565b602080601f8311600181146200020e575f8415620001f65750858301515b5f19600386901b1c1916600185901b1785556200019b565b5f85815260208120601f198616915b828110156200023e578886015182559484019460019091019084016200021d565b50858210156200025c57878501515f19600388901b60f8161c191681555b5050505050600190811b01905550565b634e487b7160e01b5f52601160045260245ffd5b600181815b80851115620002c057815f1904821115620002a457620002a46200026c565b80851615620002b257918102915b93841c939080029062000285565b509250929050565b5f82620002d85750600162000375565b81620002e657505f62000375565b8160018114620002ff57600281146200030a576200032a565b600191505062000375565b60ff8411156200031e576200031e6200026c565b50506001821b62000375565b5060208310610133831016604e8410600b84101617156200034f575081810a62000375565b6200035b838362000280565b805f19048211156200037157620003716200026c565b0290505b92915050565b5f620003888383620002c8565b9392505050565b80820281158282048414176200037557620003756200026c565b6108b380620003b75f395ff3fe608060405234801561000f575f80fd5b50600436106100e5575f3560e01c8063715018a611610088578063a9059cbb11610063578063a9059cbb146101ad578063c634d032146101c0578063dd62ed3e146101d3578063f2fde38b146101fd575f80fd5b8063715018a6146101815780638da5cb5b1461018b57806395d89b41146101a5575f80fd5b8063313ce567116100c3578063313ce5671461013b5780636c02a931146101445780636d6a6a4d1461015957806370a0823114610162575f80fd5b8063095ea7b3146100e957806318160ddd1461011157806323b872dd14610128575b5f80fd5b6100fc6100f73660046106fe565b610210565b60405190151581526020015b60405180910390f35b61011a60055481565b604051908152602001610108565b6100fc610136366004610726565b61027c565b61011a60035481565b61014c6103c1565b604051610108919061075f565b61011a60045481565b61011a6101703660046107aa565b60066020525f908152604090205481565b61018961044d565b005b5f546040516001600160a01b039091168152602001610108565b61014c610460565b6100fc6101bb3660046106fe565b61046d565b6100fc6101ce3660046107c3565b61051b565b61011a6101e13660046107da565b600760209081525f928352604080842090915290825290205481565b61018961020b3660046107aa565b6105a5565b335f8181526007602090815260408083206001600160a01b038716808552925280832085905551919290917f8c5be1e5ebec7d5bd14f71427d1e84f3dd0314c0f7b2291e5b200ac8c7c3b9259061026a9086815260200190565b60405180910390a35060015b92915050565b6001600160a01b0383165f9081526006602052604081205482111561029f575f80fd5b6001600160a01b0384165f9081526007602090815260408083203384529091529020548211156102cd575f80fd5b6001600160a01b0384165f908152600660205260409020546102ef9083610623565b6001600160a01b038086165f90815260066020526040808220939093559085168152205461031d9083610635565b6001600160a01b038085165f90815260066020908152604080832094909455918716815260078252828120338252909152205461035a9083610623565b6001600160a01b038581165f81815260076020908152604080832033845282529182902094909455518581529186169290917fddf252ad1be2c89b69c2b068fc378daa952ba7f163c4a11628f55a4df523b3ef910160405180910390a35060019392505050565b600180546103ce9061080b565b80601f01602080910402602001604051908101604052809291908181526020018280546103fa9061080b565b80156104455780601f1061041c57610100808354040283529160200191610445565b820191905f5260205f20905b81548152906001019060200180831161042857829003601f168201915b505050505081565b610455610640565b61045e5f610699565b565b600280546103ce9061080b565b335f90815260066020526040812054821115610487575f80fd5b335f908152600660205260409020546104a09083610623565b335f90815260066020526040808220929092556001600160a01b038516815220546104cb9083610635565b6001600160a01b0384165f818152600660205260409081902092909255905133907fddf252ad1be2c89b69c2b068fc378daa952ba7f163c4a11628f55a4df523b3ef9061026a9086815260200190565b5f610524610640565b6005546105319083610635565b600555335f9081526006602052604090205461054d9083610635565b335f818152600660205260408082209390935591519091907fddf252ad1be2c89b69c2b068fc378daa952ba7f163c4a11628f55a4df523b3ef906105949086815260200190565b60405180910390a35060015b919050565b6105ad610640565b6001600160a01b0381166106175760405162461bcd60e51b815260206004820152602660248201527f4f776e61626c653a206e6577206f776e657220697320746865207a65726f206160448201526564647265737360d01b60648201526084015b60405180910390fd5b61062081610699565b50565b5f61062e8284610857565b9392505050565b5f61062e828461086a565b5f546001600160a01b0316331461045e5760405162461bcd60e51b815260206004820181905260248201527f4f776e61626c653a2063616c6c6572206973206e6f7420746865206f776e6572604482015260640161060e565b5f80546001600160a01b038381166001600160a01b0319831681178455604051919092169283917f8be0079c531659141344cd1fd0a4f28419497f9722a3daafe3b4186f6b6457e09190a35050565b80356001600160a01b03811681146105a0575f80fd5b5f806040838503121561070f575f80fd5b610718836106e8565b946020939093013593505050565b5f805f60608486031215610738575f80fd5b610741846106e8565b925061074f602085016106e8565b9150604084013590509250925092565b5f6020808352835180828501525f5b8181101561078a5785810183015185820160400152820161076e565b505f604082860101526040601f19601f8301168501019250505092915050565b5f602082840312156107ba575f80fd5b61062e826106e8565b5f602082840312156107d3575f80fd5b5035919050565b5f80604083850312156107eb575f80fd5b6107f4836106e8565b9150610802602084016106e8565b90509250929050565b600181811c9082168061081f57607f821691505b60208210810361083d57634e487b7160e01b5f52602260045260245ffd5b50919050565b634e487b7160e01b5f52601160045260245ffd5b8181038181111561027657610276610843565b808201808211156102765761027661084356fea26469706673582212205468ce9f7dba7f93f5d81c39addda690b122ef5d67c9a2a9f81cef61f65ce30464736f6c63430008140033",
  "immutableReferences": {},
  "source": "// SPDX-License-Identifier: MIT\npragma solidity ^0.8.9;\n\n// imports\nimport \"@openzeppelin/contracts/utils/math/SafeMath.sol\";\nimport \"@openzeppelin/contracts/access/Ownable.sol\";\n\ncontract alxToken is Ownable {\nusing SafeMath for uint256;\n\n\n        // global Var\n        string public tokenName = \"ALX TOKEN\";\n        string public symbol = \"ALX COIN\";\n        uint public decimals = 18; // 0.000000000000000009 // 9000000000000000000\n        uint public decimalFactor = 10 ** decimals; // 10^18 10^2 0.00\n        uint public totalSupply = 1000000 * decimalFactor; // 0.00000000001\n\n        event Transfer(address indexed _from, address indexed _to, uint256 _amount);\n        event Approval(address indexed _owner, address indexed _spender, uint256 _value);\n\n        // mapping\n        mapping(address => uint256) public balanceOf;\n        mapping(address => mapping(address => uint256)) public allowance;\n\n        constructor() {\n            balanceOf[msg.sender] = totalSupply;\n        }\n\n        //  function transfer\n        function transfer(address _to, uint256 _value) public returns (bool success) {\n            require(balanceOf[msg.sender] >= _value);\n            balanceOf[msg.sender] = balanceOf[msg.sender].sub(_value);\n            balanceOf[_to] = balanceOf[_to].add(_value);\n            emit Transfer(msg.sender, _to, _value);\n            return true;\n        }\n\n        //function approve\n        function approve(address _spender, uint256 _value) public returns (bool success) {\n            allowance[msg.sender][_spender] = _value;\n            emit Approval(msg.sender, _spender, _value);\n            return true;\n        }\n\n        //function transferFrom\n        function transferFrom(address _from, address _to, uint256 _value) public returns (bool success) {\n            require(_value <= balanceOf[_from]);\n            require(_value <= allowance[_from][msg.sender]);\n            balanceOf[_from] = balanceOf[_from].sub(_value);\n            balanceOf[_to] = balanceOf[_to].add(_value);\n            allowance[_from][msg.sender] = allowance[_from][msg.sender].sub(_value);\n            emit Transfer(_from, _to, _value);\n            return true;\n        }\n\n        //function mintToken\n        function mintToken(uint256 _amount) public onlyOwner returns (bool success) {\n            totalSupply = totalSupply.add(_amount);\n            balanceOf[msg.sender] = balanceOf[msg.sender].add(_amount);\n            emit Transfer(address(0), msg.sender, _amount);\n            return true;\n        }\n}\n",
  "sourcePath": "/home/intelligence/Documents/ALX_Blockchain_Token_Project/contracts/alxtoken.sol",
  "compiler": {
    "name": "solc",
    "version": "0.8.20+commit.a1b79de6.Emscripten.clang"
  },
  "schemaVersion": "3.4.14",
  "updatedAt": "2023-06-15T15:03:46.757Z",
  "devdoc": {
    "kind": "dev",
    "methods": {
      "owner()": {
        "details": "Returns the address of the current owner."
      },
      "renounceOwnership()": {
        "details": "Leaves the contract without owner. It will not be possible to call `onlyOwner` functions anymore. Can only be called by the current owner. NOTE: Renouncing ownership will leave the contract without an owner, thereby removing any functionality that is only available to the owner."
      },
      "transferOwnership(address)": {
        "details": "Transfers ownership of the contract to a new account (`newOwner`). Can only be called by the current owner."
      }
    },
    "version": 1
  },
  "userdoc": {
    "kind": "user",
    "methods": {},
    "version": 1
  }
}