{
  "contractName": "alxToken",
  "abi": [
    {
      "inputs": [],
      "stateMutability": "nonpayable",
      "type": "constructor"
    },
    {
      "anonymous": false,
      "inputs": [
        {
          "indexed": true,
          "internalType": "address",
          "name": "_owner",
          "type": "address"
        },
        {
          "indexed": true,
          "internalType": "address",
          "name": "_spender",
          "type": "address"
        },
        {
          "indexed": false,
          "internalType": "uint256",
          "name": "_value",
          "type": "uint256"
        }
      ],
      "name": "Approval",
      "type": "event"
    },
    {
      "anonymous": false,
      "inputs": [
        {
          "indexed": true,
          "internalType": "address",
          "name": "previousOwner",
          "type": "address"
        },
        {
          "indexed": true,
          "internalType": "address",
          "name": "newOwner",
          "type": "address"
        }
      ],
      "name": "OwnershipTransferred",
      "type": "event"
    },
    {
      "anonymous": false,
      "inputs": [
        {
          "indexed": true,
          "internalType": "address",
          "name": "_from",
          "type": "address"
        },
        {
          "indexed": true,
          "internalType": "address",
          "name": "_to",
          "type": "address"
        },
        {
          "indexed": false,
          "internalType": "uint256",
          "name": "_amount",
          "type": "uint256"
        }
      ],
      "name": "Transfer",
      "type": "event"
    },
    {
      "inputs": [
        {
          "internalType": "address",
          "name": "",
          "type": "address"
        },
        {
          "internalType": "address",
          "name": "",
          "type": "address"
        }
      ],
      "name": "allowance",
      "outputs": [
        {
          "internalType": "uint256",
          "name": "",
          "type": "uint256"
        }
      ],
      "stateMutability": "view",
      "type": "function"
    },
    {
      "inputs": [
        {
          "internalType": "address",
          "name": "",
          "type": "address"
        }
      ],
      "name": "balanceOf",
      "outputs": [
        {
          "internalType": "uint256",
          "name": "",
          "type": "uint256"
        }
      ],
      "stateMutability": "view",
      "type": "function"
    },
    {
      "inputs": [],
      "name": "decimalFactor",
      "outputs": [
        {
          "internalType": "uint256",
          "name": "",
          "type": "uint256"
        }
      ],
      "stateMutability": "view",
      "type": "function"
    },
    {
      "inputs": [],
      "name": "decimals",
      "outputs": [
        {
          "internalType": "uint256",
          "name": "",
          "type": "uint256"
        }
      ],
      "stateMutability": "view",
      "type": "function"
    },
    {
      "inputs": [],
      "name": "owner",
      "outputs": [
        {
          "internalType": "address",
          "name": "",
          "type": "address"
        }
      ],
      "stateMutability": "view",
      "type": "function"
    },
    {
      "inputs": [],
      "name": "renounceOwnership",
      "outputs": [],
      "stateMutability": "nonpayable",
      "type": "function"
    },
    {
      "inputs": [],
      "name": "symbol",
      "outputs": [
        {
          "internalType": "string",
          "name": "",
          "type": "string"
        }
      ],
      "stateMutability": "view",
      "type": "function"
    },
    {
      "inputs": [],
      "name": "tokenName",
      "outputs": [
        {
          "internalType": "string",
          "name": "",
          "type": "string"
        }
      ],
      "stateMutability": "view",
      "type": "function"
    },
    {
      "inputs": [],
      "name": "totalSupply",
      "outputs": [
        {
          "internalType": "uint256",
          "name": "",
          "type": "uint256"
        }
      ],
      "stateMutability": "view",
      "type": "function"
    },
    {
      "inputs": [
        {
          "internalType": "address",
          "name": "newOwner",
          "type": "address"
        }
      ],
      "name": "transferOwnership",
      "outputs": [],
      "stateMutability": "nonpayable",
      "type": "function"
    },
    {
      "inputs": [
        {
          "internalType": "address",
          "name": "_to",
          "type": "address"
        },
        {
          "internalType": "uint256",
          "name": "_value",
          "type": "uint256"
        }
      ],
      "name": "transfer",
      "outputs": [
        {
          "internalType": "bool",
          "name": "success",
          "type": "bool"
        }
      ],
      "stateMutability": "nonpayable",
      "type": "function"
    },
    {
      "inputs": [
        {
          "internalType": "address",
          "name": "_spender",
          "type": "address"
        },
        {
          "internalType": "uint256",
          "name": "_value",
          "type": "uint256"
        }
      ],
      "name": "approve",
      "outputs": [
        {
          "internalType": "bool",
          "name": "success",
          "type": "bool"
        }
      ],
      "stateMutability": "nonpayable",
      "type": "function"
    },
    {
      "inputs": [
        {
          "internalType": "address",
          "name": "_from",
          "type": "address"
        },
        {
          "internalType": "address",
          "name": "_to",
          "type": "address"
        },
        {
          "internalType": "uint256",
          "name": "_value",
          "type": "uint256"
        }
      ],
      "name": "transferFrom",
      "outputs": [
        {
          "internalType": "bool",
          "name": "success",
          "type": "bool"
        }
      ],
      "stateMutability": "nonpayable",
      "type": "function"
    },
    {
      "inputs": [
        {
          "internalType": "uint256",
          "name": "_amount",
          "type": "uint256"
        }
      ],
      "name": "mintToken",
      "outputs": [
        {
          "internalType": "bool",
          "name": "success",
          "type": "bool"
        }
      ],
      "stateMutability": "nonpayable",
      "type": "function"
    }
  ],
  "bytecode": "0x60c0604052600960809081526820a62c102a27a5a2a760b91b60a0526001906200002a9082620001a7565b5060408051808201909152600381526208298b60eb1b6020820152600290620000549082620001a7565b50601260038190556200006990600a62000388565b60048190556200007d90620f42406200039d565b6005553480156200008d57600080fd5b506200009933620000b2565b60055433600090815260066020526040902055620003b7565b600080546001600160a01b038381166001600160a01b0319831681178455604051919092169283917f8be0079c531659141344cd1fd0a4f28419497f9722a3daafe3b4186f6b6457e09190a35050565b634e487b7160e01b600052604160045260246000fd5b600181811c908216806200012d57607f821691505b6020821081036200014e57634e487b7160e01b600052602260045260246000fd5b50919050565b601f821115620001a257600081815260208120601f850160051c810160208610156200017d5750805b601f850160051c820191505b818110156200019e5782815560010162000189565b5050505b505050565b81516001600160401b03811115620001c357620001c362000102565b620001db81620001d4845462000118565b8462000154565b602080601f831160018114620002135760008415620001fa5750858301515b600019600386901b1c1916600185901b1785556200019e565b600085815260208120601f198616915b82811015620002445788860151825594840194600190910190840162000223565b5085821015620002635787850151600019600388901b60f8161c191681555b5050505050600190811b01905550565b634e487b7160e01b600052601160045260246000fd5b600181815b80851115620002ca578160001904821115620002ae57620002ae62000273565b80851615620002bc57918102915b93841c93908002906200028e565b509250929050565b600082620002e35750600162000382565b81620002f25750600062000382565b81600181146200030b5760028114620003165762000336565b600191505062000382565b60ff8411156200032a576200032a62000273565b50506001821b62000382565b5060208310610133831016604e8410600b84101617156200035b575081810a62000382565b62000367838362000289565b80600019048211156200037e576200037e62000273565b0290505b92915050565b6000620003968383620002d2565b9392505050565b808202811582820484141762000382576200038262000273565b6108e780620003c76000396000f3fe608060405234801561001057600080fd5b50600436106100ea5760003560e01c8063715018a61161008c578063a9059cbb11610066578063a9059cbb146101b5578063c634d032146101c8578063dd62ed3e146101db578063f2fde38b1461020657600080fd5b8063715018a6146101885780638da5cb5b1461019257806395d89b41146101ad57600080fd5b8063313ce567116100c8578063313ce567146101415780636c02a9311461014a5780636d6a6a4d1461015f57806370a082311461016857600080fd5b8063095ea7b3146100ef57806318160ddd1461011757806323b872dd1461012e575b600080fd5b6101026100fd366004610720565b610219565b60405190151581526020015b60405180910390f35b61012060055481565b60405190815260200161010e565b61010261013c36600461074a565b610286565b61012060035481565b6101526103d3565b60405161010e9190610786565b61012060045481565b6101206101763660046107d4565b60066020526000908152604090205481565b610190610461565b005b6000546040516001600160a01b03909116815260200161010e565b610152610475565b6101026101c3366004610720565b610482565b6101026101d63660046107ef565b610535565b6101206101e9366004610808565b600760209081526000928352604080842090915290825290205481565b6101906102143660046107d4565b6105c2565b3360008181526007602090815260408083206001600160a01b038716808552925280832085905551919290917f8c5be1e5ebec7d5bd14f71427d1e84f3dd0314c0f7b2291e5b200ac8c7c3b925906102749086815260200190565b60405180910390a35060015b92915050565b6001600160a01b0383166000908152600660205260408120548211156102ab57600080fd5b6001600160a01b03841660009081526007602090815260408083203384529091529020548211156102db57600080fd5b6001600160a01b0384166000908152600660205260409020546102fe9083610640565b6001600160a01b03808616600090815260066020526040808220939093559085168152205461032d9083610653565b6001600160a01b03808516600090815260066020908152604080832094909455918716815260078252828120338252909152205461036b9083610640565b6001600160a01b03858116600081815260076020908152604080832033845282529182902094909455518581529186169290917fddf252ad1be2c89b69c2b068fc378daa952ba7f163c4a11628f55a4df523b3ef910160405180910390a35060019392505050565b600180546103e09061083b565b80601f016020809104026020016040519081016040528092919081815260200182805461040c9061083b565b80156104595780601f1061042e57610100808354040283529160200191610459565b820191906000526020600020905b81548152906001019060200180831161043c57829003601f168201915b505050505081565b61046961065f565b61047360006106b9565b565b600280546103e09061083b565b3360009081526006602052604081205482111561049e57600080fd5b336000908152600660205260409020546104b89083610640565b33600090815260066020526040808220929092556001600160a01b038516815220546104e49083610653565b6001600160a01b0384166000818152600660205260409081902092909255905133907fddf252ad1be2c89b69c2b068fc378daa952ba7f163c4a11628f55a4df523b3ef906102749086815260200190565b600061053f61065f565b60055461054c9083610653565b600555336000908152600660205260409020546105699083610653565b336000818152600660205260408082209390935591519091907fddf252ad1be2c89b69c2b068fc378daa952ba7f163c4a11628f55a4df523b3ef906105b19086815260200190565b60405180910390a35060015b919050565b6105ca61065f565b6001600160a01b0381166106345760405162461bcd60e51b815260206004820152602660248201527f4f776e61626c653a206e6577206f776e657220697320746865207a65726f206160448201526564647265737360d01b60648201526084015b60405180910390fd5b61063d816106b9565b50565b600061064c828461088b565b9392505050565b600061064c828461089e565b6000546001600160a01b031633146104735760405162461bcd60e51b815260206004820181905260248201527f4f776e61626c653a2063616c6c6572206973206e6f7420746865206f776e6572604482015260640161062b565b600080546001600160a01b038381166001600160a01b0319831681178455604051919092169283917f8be0079c531659141344cd1fd0a4f28419497f9722a3daafe3b4186f6b6457e09190a35050565b80356001600160a01b03811681146105bd57600080fd5b6000806040838503121561073357600080fd5b61073c83610709565b946020939093013593505050565b60008060006060848603121561075f57600080fd5b61076884610709565b925061077660208501610709565b9150604084013590509250925092565b600060208083528351808285015260005b818110156107b357858101830151858201604001528201610797565b506000604082860101526040601f19601f8301168501019250505092915050565b6000602082840312156107e657600080fd5b61064c82610709565b60006020828403121561080157600080fd5b5035919050565b6000806040838503121561081b57600080fd5b61082483610709565b915061083260208401610709565b90509250929050565b600181811c9082168061084f57607f821691505b60208210810361086f57634e487b7160e01b600052602260045260246000fd5b50919050565b634e487b7160e01b600052601160045260246000fd5b8181038181111561028057610280610875565b808201808211156102805761028061087556fea2646970667358221220df57a891455acb2823b3e96d85af4958c420c460789283cd6c032863082b0e8364736f6c63430008130033",
  "immutableReferences": {},
  "source": "// SPDX-License-Identifier: MIT\npragma solidity ^0.8.9;\n\n// imports\nimport \"@openzeppelin/contracts/utils/math/SafeMath.sol\";\nimport \"@openzeppelin/contracts/access/Ownable.sol\";\n\ncontract alxToken is Ownable {\nusing SafeMath for uint256;\n\n\n        // global Var\n        string public tokenName = \"ALX TOKEN\";\n        string public symbol = \"ALX\";\n        uint public decimals = 18; // 0.000000000000000009 // 9000000000000000000\n        uint public decimalFactor = 10 ** decimals; // 10^18 10^2 0.00\n        uint public totalSupply = 1000000 * decimalFactor; // 0.00000000001\n\n        event Transfer(address indexed _from, address indexed _to, uint256 _amount);\n        event Approval(address indexed _owner, address indexed _spender, uint256 _value);\n\n        // mapping\n        mapping(address => uint256) public balanceOf;\n        mapping(address => mapping(address => uint256)) public allowance;\n\n        constructor() {\n            balanceOf[msg.sender] = totalSupply;\n        }\n\n\n        function transfer(address _to, uint256 _value) public returns (bool success) {\n            require(balanceOf[msg.sender] >= _value);\n            balanceOf[msg.sender] = balanceOf[msg.sender].sub(_value);\n            balanceOf[_to] = balanceOf[_to].add(_value);\n            emit Transfer(msg.sender, _to, _value);\n            return true;\n        }\n\n\n        function approve(address _spender, uint256 _value) public returns (bool success) {\n            allowance[msg.sender][_spender] = _value;\n            emit Approval(msg.sender, _spender, _value);\n            return true;\n        }\n\n\n        function transferFrom(address _from, address _to, uint256 _value) public returns (bool success) {\n            require(_value <= balanceOf[_from]);\n            require(_value <= allowance[_from][msg.sender]);\n            balanceOf[_from] = balanceOf[_from].sub(_value);\n            balanceOf[_to] = balanceOf[_to].add(_value);\n            allowance[_from][msg.sender] = allowance[_from][msg.sender].sub(_value);\n            emit Transfer(_from, _to, _value);\n            return true;\n        }\n\n\n        function mintToken(uint256 _amount) public onlyOwner returns (bool success) {\n            totalSupply = totalSupply.add(_amount);\n            balanceOf[msg.sender] = balanceOf[msg.sender].add(_amount);\n            emit Transfer(address(0), msg.sender, _amount);\n            return true;\n        }\n}\n",
  "sourcePath": "/home/intelligence/Documents/ALX_Blockchain_Token_Project/contracts/alxtoken.sol",
  "compiler": {
    "name": "solc",
    "version": "0.8.19+commit.7dd6d404.Emscripten.clang"
  },
  "schemaVersion": "3.4.13",
  "updatedAt": "2023-04-12T09:49:56.405Z",
  "devdoc": {
    "kind": "dev",
    "methods": {
      "owner()": {
        "details": "Returns the address of the current owner."
      },
      "renounceOwnership()": {
        "details": "Leaves the contract without owner. It will not be possible to call `onlyOwner` functions anymore. Can only be called by the current owner. NOTE: Renouncing ownership will leave the contract without an owner, thereby removing any functionality that is only available to the owner."
      },
      "transferOwnership(address)": {
        "details": "Transfers ownership of the contract to a new account (`newOwner`). Can only be called by the current owner."
      }
    },
    "version": 1
  },
  "userdoc": {
    "kind": "user",
    "methods": {},
    "version": 1
  }
}